:100000000B308A00F42B00000A108A100A118207B4
:10001000743465346D3470346534723461347434DE
:1000200075347234613400340A108A100A11820760
:100030006D346F3474346F34723420346F346E34F2
:1000400000340A108A100A1182076D346F34743438
:100050006F34723420346F346634663400340A10DE
:100060008A100A1182076C34653464347334203486
:100070006F346E3400340A108A100A1182076C340F
:1000800065346434733420346F3466346634003439
:100090005039EF3CE531F437202369376136A0262B
:1000A000E931F237E3376D38753A61326F39E1394A
:1000B0002E100D050D050000BD1EBD1EBD1EBD1E72
:1000C000BD1EBD1EBD1EBD1EBD1EBD1EBD1EBD1E58
:1000D000BD1EBD1EBD1EBD1EBD1EBD1EA0060A004E
:1000E000BD1EBD1EBD1EA0244E2A45295029452AED
:1000F0004510C422A021CF264127C4275310BD1E7E
:10010000BD1EBD1EA0060A00BD1EBD1EBD1EBD1E1D
:10011000BD1EBD1EBD1EBD1EBD1EBD1EBD1EBD1E07
:10012000BD1EBD1EBD1EBD1EBD1EBD1EA0068A0677
:100130000A003117203AE536F032F230F43AF23064
:100140000D05000132172038F736BD18B0060A0039
:100150003317A0366F3A6F39A037EE060A0034170E
:10016000A0366F3A6F39A03766330D050001351799
:100170002036653273106F370D05000136172036B3
:10018000653273106F33E6068A060A00C3376D10B6
:10019000ED37F43772106F370000CD37F437721037
:1001A0006537E3326E3269326F00C3376D10ED3759
:1001B000F43772106F336600CD37F437F2327310B4
:1001C0006138E13361326F00C337ED306E326F104A
:1001D000EE370001F232E337EE37E334E437000163
:1001E000C337ED306E326F10EE372039E5316F379F
:1001F000EF316932EF060A00C3376D10F03B6D0036
:10020000D332EE3461362038F7363A10253200000A
:10021000C3376D10EC32E439A0376E00CC32E439CC
:10022000A032EE316537E434E4377300C3376D1024
:10023000EC32E439A03766330001CC32E439A03027
:10024000F030E730E4377300C3376D10F4326D38A7
:100250006539613A75396100D4326D383A10253309
:1002600080042010201020102010201020102010BA
:10027000201000012010201020102010201020102D
:1002800020102010000049376739E5396110F43A31
:10029000A031EF366137E4373A100D0500015630D2
:1002A000840083130008031962290630F800F7015F
:1002B000F70B5829F80B57297B30F700F70B5E290D
:1002C000800B552908005D1867290812682908164F
:1002D000831608128312DD186F2988127029881678
:1002E0008316881283125D19772908137829081755
:1002F000831608138312DD197F2988138029881734
:100300008316881300008312081583160811033022
:10031000F700F70B8929831208118316081183123D
:100320000800DE018316081600308312081A013017
:10033000DE048316881600308312881A0130F70015
:100340000310F70D7708DE048316081700308312B8
:10035000081B0130F700F70DF70DFC30F7057708A3
:10036000DE048316881700308312881B0130F700E3
:10037000F70DF70DF70DF830F7057708DE045E0886
:10038000F80008008316081108108810831208105E
:100390008316081008168816081788178312881401
:1003A00083168810000083120815831608110000B8
:1003B000831291217808DD000811831608110000CE
:1003C0008312081583160811E529E6290000831217
:1003D00091217808DC000811831608110812881290
:1003E0000813881383125D0EF700F030F7057708C5
:1003F0005C04F8007808DC00DC1F002A8316CA2998
:10040000DA08031D052A0810062A081483160810A6
:1004100000008312881083168810000083120811D0
:100420008316081183125B0EDC000F30DC055C08BC
:10043000DD0063215B080F39DC00DD00632108006B
:100440002830C5000C30C6000130C7000630C80097
:1004500008118316081183120810831608108312DE
:100460008810831688100812881208138813081140
:10047000081088100F308312D6004F210130C400BD
:100480004408033C031C4C2A0330DD006321053083
:10049000D6004F21C40A402A0230DD006321053016
:1004A000D6004F21C4014408033C031C632A453095
:1004B0004407840083130008C900DA014908DB00FF
:1004C000C221C40A532A8A150A12162C0B08C4002A
:1004D0008B13831603178C170C1400000000831273
:1004E0000313C41B8B1703170C087F390319BC2A8D
:1004F0000313C40003170D080313C50003170F08E7
:100500000313C60044080C1E832A990045080317EC
:100510008D000313460803178F0003130B08C70051
:100520008B13831603178C170C1400000000831222
:100530000313C71B8B1703170C0D0E0D7F390319FF
:10054000BC2A0313C40003170D080313C5000317C7
:100550000F080313C60044080C1EAC2A9900450876
:1005600003178D000313460803178F008D0A031924
:100570008F0A0313662A0317031308004330031777
:100580008D0001308F00031366223E300C1EC62AF8
:10059000990008008C1EDF2A440884008313451844
:1005A00083178403840A8C1ED32A1A0880000D3016
:1005B0000002031DD22A80010130F800E12A003038
:1005C000F8008A150A12A62C720873040319EC2A83
:1005D0007308FA007208EF2A2108FA002008FB00CD
:1005E0007A08FC007C088316A1007B08A00075082F
:1005F000A3007408A2002108A5002008A400250873
:10060000FA002408840083137A18831780080319DA
:10061000402B2308A7002208A6002708FA00260876
:10062000840083137A1883178008031D242B200865
:100630002402F7002508FA002108031C210FFA0202
:100640007708F8004B2B382B2508FA002408840083
:1006500083137A1883170008A8002708FA002608D1
:10066000840083137A1883170008280203193C2B8F
:10067000A60A0319A70A0D2BA40A0319A50AFF2A23
:1006800020082402F7002508FA002108031C210F86
:10069000FA027708F8007808FB070318FC0A7C08C0
:1006A000FA007B08840083137A1883178008031DDF
:1006B0005D2B0030F800F900ED2B7C08A1007B08D1
:1006C000A0007508A3007408A2002108A500200856
:1006D000A4002508FA002408840083137A188317DD
:1006E00080080319A22B2308A7002208A6002708C8
:1006F000FA002608840083137A18831780080319E8
:100700009E2B2508FA002408840083137A18831787
:100710000008A8002708FA002608840083137A1826
:10072000831700082802031D9A2B2408F8002508C7
:10073000F900A52BA60A0319A70A772BA40A031907
:10074000A50A692B0030F800F9007908FE00780846
:10075000FD00FD08031DAF2BFE080319BF2B7D080C
:10076000840083137E1883178001FD0A0319FE0A93
:100770007E088312A1007D08A000E82B83167C0868
:10078000A1007B08A0002108A3002008A2002308E4
:10079000FA002208840083137A188317800803194B
:1007A000D52BA20A0319A30AC72B20082202F7009F
:1007B0002308FA002108031C210FFA027708F80029
:1007C00078087B078312A0007C08A1000318A10A07
:1007D0007B08F8007C08F900831683120800730870
:1007E000FA007208840083137A1883170008F60051
:1007F0007508FA007408840083137A1883170008B8
:100800007602031D1A2C7308FA0072088400831301
:100810007A1883178008031D102C0030F800322C42
:100820007308FA007208F20A0319F30AF40A0319AA
:10083000F50AEF2B7308FA0072088400831373180B
:1008400083170008F6007508FA0074088400831303
:1008500075188317000876020318302CFF30312CEE
:100860000130F80008004508F3004408F200F101E7
:100870004830F0007208840083137318831700084F
:10088000F4007008840083137118831774088000C3
:10089000800803194E2CF00AF20A3A2C3E30DE0092
:1008A000DF01F3014830F200F5015E30F400E4228C
:1008B0007908DD007808DC003D30EA00EB015D08D6
:1008C000F3005C08F200F5016A30F400E4227908D4
:1008D000ED007808EC00F301F201F5016A30F40054
:1008E000E4227908EF007808EE006C086D04031923
:1008F000602DF8010C30F7005E3084008313780817
:1009000004208000F80A840AF70B7F2C6D08F3009E
:100910006C08F200F5015E30F400EF23F808031DC7
:10092000942C0130F800622D7030DE007730DF004B
:100930006D30E000E1016D08F3006C08F200F50194
:100940005E30F400EF23F808031DF42C6E086F04EA
:100950000319F42C6F08F1006E08F0007108FA001A
:100960007008840083137A18831780080319D02C29
:100970007108FA007008840083137A18831700083E
:10098000F20072082F3C0318C92C7208393C031876
:10099000CC2C0030F800D22CF00A0319F10AAE2C4E
:1009A0000130F800F8080319F42C6F08F3006E0802
:1009B000F2004708F1004608F00072088400831333
:1009C000731883170008F4007008840083137118EB
:1009D00083177408800080080319F12CF00AF20ACA
:1009E000DD2C0230F800622DF8010930F7005E308E
:1009F00084008313780814208000F80A840AF70B17
:100A0000FA2C6D08F3006C08F200F5015E30F4007A
:100A1000EF23F808031D0F2D0330F800622DF801B5
:100A20000A30F7005E3084008313780821208000AC
:100A3000F80A840AF70B152D6D08F3006C08F20014
:100A4000F5015E30F400EF23F808031D2A2D043071
:100A5000F800622DF8010830F7005E30840083133F
:100A600078082F208000F80A840AF70B302D6D08D3
:100A7000F3006C08F200F5015E30F400EF23F80893
:100A8000031D452D0530F800622DF8010930F700EF
:100A90005E308400831378083B208000F80A840AC3
:100AA000F70B4B2D6D08F3006C08F200F5015E307A
:100AB000F400EF23F808031D602D0630F800622DC6
:100AC0000030F8008A150A12B42C570B682D6B2DD4
:100AD0004030D8006C2DD80101305602D807580894
:100AE0008038D900DA015908DB00C2210800550816
:100AF000073A0319852D0B3A03198A2D063A031973
:100B0000922D023A0319982D9D2D0130D600D70061
:100B10006525A22DDA010130DB00C2210230D600AA
:100B20004F21A22D0130D6000230D7006525A22D1D
:100B3000DA011030DB00C221A22D0130DA005508A5
:100B4000DB00C22108000B08C8008B1383160317B3
:100B50008C170C140000000083120313C81B8B17A2
:100B600003170C087F390319F72D0313C800031767
:100B70000D080313C90003170F080313CA00480820
:100B8000D5007725490803178D0003134A0803177A
:100B90008F0003130B08CB008B13831603178C17DE
:100BA0000C140000000083120313CB1B8B170317D8
:100BB0000C0D0E0D7F390319F72D0313C800031711
:100BC0000D080313C90003170F080313CA004808D0
:100BD000D5007725490803178D0003134A0803172A
:100BE0008F008D0A03198F0A0313A32D0317031314
:100BF00008000130D600D7006525313003178D007D
:100C000001308F000313A3250130D6000230D70036
:100C100065253A3003178D0001308F000313A3259B
:100C20008A150A12B92C1030CE00F701FA01CB0C4C
:100C3000CA0C031C212E4C08F7070318FA0A4D08AA
:100C4000FA07FA0CF70CF90CF80CCE0B172E08006B
:100C50000B08C9008B13831603178C170C140000A4
:100C6000000083120313C91B8B1703185F2E031791
:100C70000C087F390313C90003170D080313CA00BA
:100C800003170F080313CB004908D50077254A083E
:100C900003178D0003134B0803178F0003130B0872
:100CA000CC008B13831603178C170C140000000064
:100CB00083120313CC1B8B17C80B5F2E7E2E0317DA
:100CC0000C0D0E0D7F390313C90003170D08031314
:100CD000CA0003170F080313CB004908D500772576
:100CE0004A0803178D0003134B0803178F008D0A62
:100CF00003198F0A03100313C80B282E080083184A
:100D0000842E5D3084008313F701F801F901FA01A4
:100D1000DD01DE01DF01E0015C085B045A045904D7
:100D20000319C22E2030E1000310D50DD60DD70DCA
:100D3000D80DDD0DDE0DDF0DE00D5C086002031D3A
:100D4000AB2E5B085F02031DAB2E5A085E02031D2B
:100D5000AB2E59085D02031CBC2E5908DD025A084F
:100D6000031C5A0FDE025B08031C5B0FDF025C08EA
:100D7000031C5C0FE0020314F70DF80DF90DFA0DDA
:100D8000E10B942E5D088000840A5E088000840ACE
:100D90005F088000840A6008800008004C08F801A1
:100DA0004B020318D62E4B08F700E22EF70108304D
:100DB000CD00CB0DF70D4C0877020318F700F80DA6
:100DC000CD0BD92E08000130D600D7006525FC30A8
:100DD00003178D0000308F000313A3250130D600C8
:100DE0000230D7006525003003178D0001308F00D9
:100DF00003100C300313C80028264408C50018301F
:100E0000C6002030461E3030C7004508F700C51F19
:100E1000112FF709F70A7708C5002D30C700C6174C
:100E200046144508CB006430CC00CE267708C500B8
:100E300030307807C8004508CB000A30CC00CE26F9
:100E400030307707CA0030307807C9004708F7000C
:100E5000303048020319302FC614C61B4615442FE4
:100E60004708C8002030C7003030490203193C2F22
:100E70004614C61BC614442F031D4614031D442FDD
:100E80004808C9002030C80046194B2FC6184E2FFD
:100E90004618512F542F4708D50077254808D5000C
:100EA00077254908D50077254A08D50077254408D5
:100EB000643C031CA62FCB014408CA000230CD00BD
:100EC0007030CC0013267908C6007808C5004608A3
:100ED000C8004508C700CA016430C900F801F9011B
:100EE000F701FA014A08031D782F49080319922FC8
:100EF0001030CB000310C70DC80DF70DFA0D4A08CE
:100F00007A02031D852F49087702031C8E2F49089A
:100F1000F702031CFA034A08FA020314F80DF90D4C
:100F2000CB0B7A2F7908C6007808C500C60CC50C13
:100F3000C60CC50CC60C45089500C60C460C3039CD
:100F4000F7001708CF3977049700A72F95018A1566
:100F50000A12DD2C0130D600D700652508300317B2
:100F60008D0001308F000313A3250130D60002301D
:100F7000D70065250E3003178D0001308F00031355
:100F8000A32583168601FF30831286008A150A1274
:100F90002A2D0130D600D7006525163003178D00A5
:100FA00001308F000313A3250130D6000230D70093
:100FB00065251D3003178D0001308F000313A32515
:0E0FC00083168601831286018A150A12312DCE
:101000000408CD004C08CF00031993284B08D800E2
:101010004A08D7004908D6004808D500DC01DB01A2
:101020002030DA008230D900550803198528DD0008
:10103000590803198528DD07031C1F2826287F303F
:10104000DD02031C8528031985282A288130DD0745
:10105000031885285D08F700F801F901FA01560820
:10106000E100E1175708E0005808DF001830DD0004
:10107000DE015F1C53285C08FA07031C4528F90AA7
:10108000031D4528F80A0319DE175B08F907031C3E
:101090004C28F80A0319DE175A08D700D717570843
:1010A000F8070318DE17DE0DF80CF90CFA0CE10C4A
:1010B000E00CDF0C0310DD0B38280130F7070318B4
:1010C0008528F81B6A28E10DFA0DF90DF80DF703D4
:1010D00003198528E11F7B28FA0A031D7B28F90ADA
:1010E000031D7B28F80A031D7B28F80CF90CFA0C69
:1010F000F70A031985285608DE005A08DE06DE1FA7
:101100008328F8178928F8138928F701F801F901CD
:10111000FA017A08CB007908CA007808C900770874
:10112000C800CF0B06284B08D8004A08D70049084A
:10113000D6004808D5005508B63CD500FA01560837
:10114000D900D6170310D60CD70CD80CFA0CF90C12
:10115000F80CF70CD50BA228D91FB928F709F80904
:10116000F909FA09F70A0319F80A0319F90A031920
:10117000FA0A7A08CB007908CA007808C90077080B
:10118000C800CB1FD028CD03CD16C809C909CA098C
:10119000CB09C80A0319C90A0319CA0A0319CB0AD9
:1011A0003B30D4009A30D300CA30D200D1010A308B
:1011B000CF004C080319CD0A8314483084008313F0
:1011C0004B08D8004A08D7004908D6004808D5007F
:1011D0005408DC005308DB005208DA005108D9003B
:1011E0008A117F268A157808F708031D0A294C0AF8
:1011F0004F0203190A294D0803190C290F394F0210
:101200000319042903184429CD1B44294D1B0C291B
:1012100020303E292030CD05CD1E1C29CD124C0892
:10122000031DCD037708CD002D30D5008A11772519
:101230008A154D08F700CD014C084F02031D2C29DB
:101240007708CD002E30D5008A1177258A154D08F4
:10125000F7002030CD0500303030CD1E3E29CD12B4
:101260004C08031DCD037708CD002D30D5008A1121
:1012700077258A154D08F700CD013030F70777083C
:10128000D5008A1177258A1583105408D800530891
:10129000D7005208D6005108D500DC01DB01DA0185
:1012A0000A30D9008A117F268A157A08D400790875
:1012B000D3007808D2007708D100CF0BDC288A153C
:1012C0000A12BB2A0030F8001F08C73978049F00B3
:1012D0005330F700F70B6A291F151F196D291E08D7
:1012E000FA0083161E088312C8007A08C90001306C
:1012F000CB00F430CA004908CD004808CC008A1160
:1013000013268A157908FA007808C8007A08C900F7
:101310008E30F7004908F8004808F900FA01F8088B
:10132000031D9C297908F800F9010830F702F80834
:10133000031D9C29F701A4290310F81BA329F90D0B
:10134000F80DF7039C29F8137A08CB007908CA0036
:101350007808C9007708C8004B08CF004A08CE00BB
:101360004908CD004808CC00D301C030D2007F30FE
:10137000D1008830D0004C080319802AD8005008CA
:101380000319802AD802031CCA297F30D807031802
:10139000802AD0298130D802031C802A0319802A90
:1013A0005808F700F801F901FA01D7014D08D600F5
:1013B000D6174E08D5004F08D4001930D80053086E
:1013C000D4020318F3290130D5020318F329D602F9
:1013D0000318F329D7020318F329D70AD60AD50A26
:1013E0005308D407252A5208D50203180E2A0130C3
:1013F000D60203180E2AD70203180E2AD70AD60AD5
:101400005208D5075308D407031C252AD50A031D03
:10141000252AD60A031D252AD70A252A51088038ED
:10142000D6020318242A0130D7020318242AD70A27
:1014300051088038D6075208D507031C022AD60A5D
:10144000031D022AD70A022A7A14D80B282A332A23
:101450000310D40DD50DD60DD70D0310FA0DF90DCF
:10146000F80DD90DDF29591C3B2A0310F80CF90C93
:10147000FA0CD90C3E2AF7030319802AD91B672AD4
:101480000310D40DD50DD60DD70D5308D402031873
:10149000532A0130D5020318532AD6020318532ABF
:1014A000D702031C762A5208D50203185E2A01309F
:1014B000D60203185E2AD702031C762A5108803808
:1014C000D6020318672A0130D702031C762AFA0ACB
:1014D000031D762AF90A031D762AF80A031D762AC7
:1014E000F70A0319802AF80CF90CFA0C4D08D800F9
:1014F0005108D806D81F7E2AF817842AF813842AA0
:10150000F701F801F901FA017A08C7007908C60065
:101510007808C5007708C4000130D600D7008A11CA
:1015200065258A15243003178D0001308F008A113C
:101530000313A3258A150130D6000230D7008A1183
:1015400065258A152C3003178D0001308F0003109C
:1015500006300313C8008A1128268A1589308400B2
:101560004708CB004608CA004508C9004408C8001F
:101570000230CC0000288A150A12CF2CCA01C801FB
:101580000A30C900C701C60144084504031DCC2A1E
:101590000030F800F900F12B4A08CA0A4407840019
:1015A0008313451883170008CB004B082D3C031DFF
:1015B000E52A0130C8004A08CA0A44078400831398
:1015C000451883170008CB00F22A4B082B3C031D5B
:1015D000F22A4A08CA0A440784008313451883176D
:1015E0000008CB004B082F3C0318E22B4B08393C7A
:1015F000031CE22B4B08303C031D1E2B4A084407FA
:1016000084008313451883170008783C0319122BB4
:101610004A08440784008313451883170008583C80
:10162000031D1E2B1030C900CA0A4A08CA0A440703
:1016300084008313451883170008CB0049080A3C2F
:10164000031D712B4B082F3C0318702B4B08393CA2
:10165000031C702BCD010A30CC004708CF00460890
:10166000CE004D084F068039D100CD1F3C2BCC0950
:10167000CD09CC0A0319CD0ACF1F432BCE09CF09C0
:10168000CE0A0319CF0A1030D000F701FA01CD0CB1
:10169000CC0C031C512B4E08F7070318FA0A4F080D
:1016A000FA07FA0CF70CF90CF80CD00B472BD11FEA
:1016B0005E2BF809F909F80A0319F90A30304B02D0
:1016C0007807C6007908C7000318C70A4A08CA0A7B
:1016D000440784008313451883170008CB00222B8E
:1016E000E22B4908103C031DE22B4B08603C031819
:1016F000802B4B087A3C031C802B4B08DF39812B55
:101700004B08CB004B082F3C03188A2B4B08393C65
:101710000318922B4B08403C0318E22B4B08463C25
:10172000031CE22B4B082F3C0318B32B4B08393C0E
:10173000031CB32B460DCC00470DCD00CC0DCD0DB9
:10174000CC0DCD0DCC0DCD0DF030CC0530304B0295
:101750004C07F8004D08FA000318FA0A7808C6008A
:101760007A08C700CC2B460DCC00470DCD00CC0D20
:10177000CD0DCC0DCD0DCC0DCD0DF030CC054130C7
:101780004B020A3E4C07F8004D08FA000318FA0A0B
:101790007808C6007A08C7004A08CA0A44078400C5
:1017A0008313451883170008CB00603C0318DF2B18
:1017B0004B087A3C031CDF2B4B08DF39E02B4B082E
:1017C000CB00822B49080A3C031DED2B480BED2B67
:1017D000C609C709C60A0319C70A4608F800470818
:1017E000F9008A150A12D72C03081F3983008130AB
:1017F00083169900A6309800903083129800FF302D
:10180000A600A801A70183161F149F141F159F117E
:1018100007309C0083138312A001A1013530BD0065
:101820003030BE00BF01C0018A11202A8A158316FC
:101830001F109F141F159F151F1383121F179F172B
:1018400083169F1783121F140030F8001F08C73932
:1018500078049F005330F700F70B2C2C2611260834
:1018600083168700831207110C3097003A308316D5
:1018700088000030F8000638831292009B308316EF
:10188000920083129501C201483003178D00003089
:101890008F008A11031366228A155C3003178D00AE
:1018A00000308F008A11031366228A1570300317E7
:1018B0008D0000308F008A11031366228A15843050
:1018C00003178D0000308F008A11031366228A15DA
:1018D000993003178D0000308F008A1103136622A0
:1018E0008A15A23003178D0000308F008A11031370
:1018F00066228A15A83003178D0000308F008A11E8
:10190000031366228A15AF3003178D0000308F0055
:101910008A11031366228A15B73003178D00003031
:101920008F008A11031366228A15BE3003178D00BB
:1019300000308F008A11031366228A158A11BE2295
:101940008A15C5012930C4008A11CA2A8A15780867
:10195000C000C0080319612DC5012930C400C701AA
:101960003D30C6008A11332C8A157808C3008A11CD
:10197000F92D8A154308013A0319CE2C033A0319AD
:10198000D32C013A0319E22C073A0319052D013A29
:101990000319282D033A03192F2D362D62298A1198
:1019A000BE228A15612DC5013D30C400BE2A7808CB
:1019B000C2004208C4008A11E32E8A158A11BE2291
:1019C0008A15612D0130D600D7008A1165258A1548
:1019D000C63003178D0000308F008A110313A32532
:1019E0008A150130D6000230D7008A1165258A1584
:1019F000CD3003178D0000308F008A110313A3250B
:101A00008A158A11BE228A15612D0130D600D700B1
:101A10008A1165258A15D53003178D0000308F0097
:101A20008A110313A3258A150130D6000230D7008E
:101A30008A1165258A15DC3003178D0000308F0070
:101A40008A110313A3258A158A11BE228A15612DD6
:101A50008A11AA2F8A158A11BE228A15612D8A1130
:101A6000C92F8A158A11BE228A15612D0130D60030
:101A7000D7008A1165258A15E43003178D000030E0
:101A80008F008A110313A3258A150130D600023076
:101A9000D7008A1165258A15EA3003178D000030BA
:101AA0008F008A110313A3258A15F03003178D00C8
:101AB00000308F008A11031366228A158A11BE2214
:101AC0008A151030F700F70B632D0000A12C0030B1
:041AD000F8006300B7
:02400E00723FFF
:00000001FF
;PIC16F877A
;CRC=118F  CREATED="30-nov.-23 02:02"
