:100000000C308A00762C00000A108A100A11820730
:10001000743465346D3470346534723461347434DE
:1000200075347234613400340A108A100A11820760
:100030006D346F3474346F34723420346F346E34F2
:1000400000340A108A100A1182076D346F34743438
:100050006F34723420346F346634663400340A10DE
:100060008A100A1182076C34653464347334203486
:100070006F346E3400340A108A100A1182076C340F
:1000800065346434733420346F3466346634003439
:100090005039EF3CE531F437202369376136A0262B
:1000A000E931F237E3376D38753A61326F39E1394A
:1000B0002E100D050D050000BD1EBD1EBD1EBD1E72
:1000C000BD1EBD1EBD1EBD1EBD1EBD1EBD1EBD1E58
:1000D000BD1EBD1EBD1EBD1EBD1EBD1EA0060A004E
:1000E000BD1EBD1EBD1EA0244E2A45295029452AED
:1000F0004510C422A021CF264127C4275310BD1E7E
:10010000BD1EBD1EA0060A00BD1EBD1EBD1EBD1E1D
:10011000BD1EBD1EBD1EBD1EBD1EBD1EBD1EBD1E07
:10012000BD1EBD1EBD1EBD1EBD1EBD1EA0068A0677
:100130000A00C337ED306E32EF39BA060A003117C4
:10014000203AE536F032F230F43AF2300D05000193
:1001500032172038F736BD18B0060A003317A0361C
:100160006F3A6F39A037EE060A003417A0366F3A9F
:100170006F39A03766330D0500013517203665321B
:1001800073106F370D050001361720366532731076
:100190006F33E6068A060A00C3376D10F03B6D0028
:1001A000D332EE3461362038F7363A10253200006B
:1001B000C3376D10EC32E439A0376E00CC32E4392D
:1001C000A032EE316537E434E4377300C3376D1085
:1001D000EC32E439A03766330001CC32E439A03088
:1001E000F030E730E4377300C3376D10F4326D3808
:1001F0006539613A75396100D4326D383A1025336A
:100200008002C3376D10ED37F43772106F3700017D
:10021000CD37F43772106537E3326E3269326F00D2
:10022000C3376D10ED37F43772106F336600CD377A
:10023000F437F23273106138E13361326F00C33743
:10024000ED306E326F10EE370001F232E337EE37E9
:10025000E334E4370000201020102010201020107C
:10026000201020102010000120102010201020103D
:100270002010201020102010000049376739E53980
:100280006110F43AA031EF366137E4373A100D05CA
:100290000001553084008313000803195C290630DF
:1002A000F800F701F70B5229F80B51297B30F700C2
:1002B000F70B5829800B4F2908005C186129081298
:1002C00062290816831608128312DC18692988121D
:1002D0006A2988168316881283125C1971290813FB
:1002E00072290817831608138312DC1979298813D9
:1002F0007A2988178316881300008312081583163D
:1003000008110330F700F70B8329831208118316B5
:10031000081183120800DD018316081600308312CD
:10032000081A0130DD048316881600308312881AFB
:100330000130F7000310F70D7708DD048316081766
:1003400000308312081B0130F700F70DF70DFC3069
:10035000F7057708DD048316881700308312881BA1
:100360000130F700F70DF70DF70DF830F7057708B6
:10037000DD045D08F80008008316081108108810D5
:100380008312081083160810081688160817881795
:1003900083128814831688100000831208158316B0
:1003A0000811000083128B217808DC0008118316E5
:1003B000081100008312081583160811DF29E029AF
:1003C000000083128B217808DB00081183160811C6
:1003D000081288120813881383125C0EF700F0309D
:1003E000F70577085B04F8007808DB00DB1FFA29C3
:1003F0008316C429D908031DFF290810002A0814F0
:1004000083160810000083128810831688100000DD
:10041000831208118316081183125A0EDB000F3065
:10042000DB055B08DC005D215A080F39DB00DC00CE
:100430005D2108002830C4000C30C5000130C60022
:100440000630C7000811831608118312081083169E
:100450000810831288108316881008128812081357
:1004600088130811081088100F308312D500492115
:100470000130C3004308033C031C462A0330DC0060
:100480005D210530D5004921C30A3A2A0230DC003B
:100490005D210530D5004921C3014308033C031CFD
:1004A0005D2A44304307840083130008C800D90143
:1004B0004808DA00BC21C30A4D2A8A150A12982C72
:1004C0000B08C3008B13831603178C170C14000042
:1004D000000083120313C31B8B1703170C087F390B
:1004E0000319B62A0313C30003170D080313C4002E
:1004F00003170F080313C50043080C1E7D2A99003B
:10050000440803178D000313450803178F000313D6
:100510000B08C6008B13831603178C170C140000EE
:10052000000083120313C61B8B1703170C0D0E0D4F
:100530007F390319B62A0313C30003170D080313E9
:10054000C40003170F080313C50043080C1EA62A96
:100550009900440803178D000313450803178F0003
:100560008D0A03198F0A0313602A03170313080067
:100570003D3003178D0001308F00031360223E30A1
:100580000C1EC02A990008008C1ED92A430884003A
:100590008313441883178403840A8C1ECD2A1A08F7
:1005A00080000D300002031DCC2A80010130F800CC
:1005B000DB2A0030F8008A150A12312D7108720406
:1005C0000319E62A7208FA007108E92A2108FA00DC
:1005D0002008F5007A08F6007608FE007508FD0090
:1005E00074088316A1007308A0007E08A3007D088C
:1005F000A2002308FA002208840083137A188317C4
:10060000800803193A2B2108A5002008A40025081A
:10061000FA002408840083137A1883178008031DC6
:100620001E2B7D082202F7002308FA007E08031C17
:100630007E0FFA027708F800452B322B2308FA00C8
:100640002208840083137A1883170008A60025085F
:10065000FA002408840083137A18831700082602FE
:100660000319362BA40A0319A50A072BA20A03199A
:10067000A30AF92A7D082202F7002308FA007E085F
:10068000031C7E0FFA027708F8007808F5070318B4
:10069000F60A7608FA007508840083137A1883171F
:1006A0008008031D572B0030F800F900E72B76086F
:1006B000FE007508FD007408A1007308A0007E0804
:1006C000A3007D08A2002308FA00220884008313F7
:1006D0007A188317800803199C2B2108A50020088D
:1006E000A4002508FA002408840083137A188317CD
:1006F00080080319982B2308FA002208840083132A
:100700007A1883170008A6002508FA002408840038
:1007100083137A18831700082602031D942B2208DE
:10072000F8002308F9009F2BA40A0319A50A712BCE
:10073000A20A0319A30A632B0030F800F900790814
:10074000FC007808FB00FB08031DA92BFC0803191B
:10075000B92B7B08840083137C1883178001FB0A64
:100760000319FC0A7C088312A1007B08A000E22B7D
:1007700083167608FE007508FD007E08A1007D083E
:10078000A0002108FA002008840083137A18831738
:1007900080080319CF2BA00A0319A10AC12B7D08D9
:1007A0002002F7002108FA007E08031C7E0FFA02DF
:1007B0007708F800780875078312A0007608A10072
:1007C0000318A10A7508F8007608F9008316831249
:1007D00008007208FA007108840083137A188317DE
:1007E0000008F5007408FA007308840083137A186F
:1007F000831700087502031D142C7208FA00710893
:10080000840083137A1883178008031D0A2C003094
:10081000F8002C2C7208FA007108F10A0319F20A88
:10082000F30A0319F40AE92B7208FA00710884002C
:100830008313721883170008F5007408FA00730810
:1008400084008313741883170008750203182A2C78
:10085000FF302B2C0130F80008004408F200430858
:10086000F100F0014730EF00710884008313721823
:1008700083170008F3006F08840083137018831730
:100880007308800080080319482CEF0AF10A342C01
:100890003E30DD00DE01F2014730F100F4015D3051
:1008A000F300DE227908DC007808DB003D30E90047
:1008B000EA015C08F2005B08F100F4016930F30022
:1008C000DE227908EC007808EB00F201F101F40176
:1008D0006930F300DE227908EE007808ED006B083D
:1008E0006C0403195A2DF8010C30F7005D308400B8
:1008F0008313780804208000F80A840AF70B792C07
:100900006C08F2006B08F100F4015D30F300E9239C
:10091000F808031D8E2C0130F8005C2D7030DD00CE
:100920007730DE006D30DF00E0016C08F2006B080C
:10093000F100F4015D30F300E923F808031DEE2C0B
:100940006D086E040319EE2C6E08F0006D08EF00C0
:100950007008FA006F08840083137A1883178008E0
:100960000319CA2C7008FA006F08840083137A18E0
:1009700083170008F10071082F3C0318C32C71087D
:10098000393C0318C62C0030F800CC2CEF0A0319B0
:10099000F00AA82C0130F800F8080319EE2C6E08B4
:1009A000F2006D08F1004608F0004508EF007108FC
:1009B00084008313721883170008F3006F08840003
:1009C0008313701883177308800080080319EB2CB9
:1009D000EF0AF10AD72C0230F8005C2DF80109303B
:1009E000F7005D3084008313780814208000F80A33
:1009F000840AF70BF42C6C08F2006B08F100F40188
:100A00005D30F300E923F808031D092D0330F800D9
:100A10005C2DF8010A30F7005D30840083137808FC
:100A200021208000F80A840AF70B0F2D6C08F200D1
:100A30006B08F100F4015D30F300E923F808031DB1
:100A4000242D0430F8005C2DF8010830F7005D30EB
:100A50008400831378082F208000F80A840AF70B9B
:100A60002A2D6C08F2006B08F100F4015D30F300F0
:100A7000E923F808031D3F2D0530F8005C2DF8012F
:100A80000930F7005D308400831378083B20800034
:100A9000F80A840AF70B452D6C08F2006B08F10088
:100AA000F4015D30F300E923F808031D5A2D0630E8
:100AB000F8005C2D0030F8008A150A123F2D560B05
:100AC000622D652D4030D700662DD70101305502CB
:100AD000D70757088038D800D9015808DA00BC2158
:100AE00008005408073A03197F2D0B3A0319842D87
:100AF000063A03198C2D023A0319922D972D0130D5
:100B0000D500D6005F259C2DD9010130DA00BC212B
:100B10000230D50049219C2D0130D5000230D6008D
:100B20005F259C2DD9011030DA00BC219C2D0130AD
:100B3000D9005408DA00BC2108000B08C7008B1349
:100B4000831603178C170C14000000008312031384
:100B5000C71B8B1703170C087F390319F12D0313DB
:100B6000C70003170D080313C80003170F0803136A
:100B7000C9004708D4007125480803178D000313E6
:100B8000490803178F0003130B08CA008B13831641
:100B900003178C170C140000000083120313CA1BE8
:100BA0008B1703170C0D0E0D7F390319F12D03134D
:100BB000C70003170D080313C80003170F0803131A
:100BC000C9004708D4007125480803178D00031396
:100BD000490803178F008D0A03198F0A03139D2DEF
:100BE0000317031308000130D500D6005F252B3012
:100BF00003178D0001308F0003139D250130D500B0
:100C00000230D6005F25343003178D0001308F008D
:100C100003139D258A150A12442D1030CD00F701CB
:100C2000FA01CA0CC90C031C1B2E4B08F70703184A
:100C3000FA0A4C08FA07FA0CF70CF90CF80CCD0B71
:100C4000112E08000B08C8008B13831603178C178E
:100C50000C140000000083120313C81B8B17031829
:100C6000592E03170C087F390313C80003170D080A
:100C70000313C90003170F080313CA004808D40060
:100C80007125490803178D0003134A0803178F00C5
:100C900003130B08CB008B13831603178C170C144C
:100CA0000000000083120313CB1B8B17C70B592EB8
:100CB000782E03170C0D0E0D7F390313C800031790
:100CC0000D080313C90003170F080313CA004808CF
:100CD000D4007125490803178D0003134A08031730
:100CE0008F008D0A03198F0A03100313C70B222EDE
:100CF000080083187E2E5C3084008313F701F8010E
:100D0000F901FA01DC01DD01DE01DF015B085A04B3
:100D1000590458040319BC2E2030E0000310D40DF0
:100D2000D50DD60DD70DDC0DDD0DDE0DDF0D5B080D
:100D30005F02031DA52E5A085E02031DA52E590849
:100D40005D02031DA52E58085C02031CB62E580830
:100D5000DC025908031C590FDD025A08031C5A0F04
:100D6000DE025B08031C5B0FDF020314F70DF80DB6
:100D7000F90DFA0DE00B8E2E5C088000840A5D08E8
:100D80008000840A5E088000840A5F0880000800F2
:100D9000C901C7010A30C800C601C501430844049F
:100DA000031DD62E0030F800F900F72F4908C90AB4
:100DB000430784008313441883170008CA004A08B5
:100DC0002D3C031DEF2E0130C7004908C90A430717
:100DD00084008313441883170008CA00FC2E4A08B5
:100DE0002B3C031DFC2E4908C90A430784008313CA
:100DF000441883170008CA004A082F3C0318E82F3C
:100E00004A08393C031CE82F4A08303C031D282FB0
:100E10004908430784008313441883170008783C6B
:100E200003191C2F490843078400831344188317B0
:100E30000008583C031D282F1030C800C90A490873
:100E4000C90A430784008313441883170008CA00A3
:100E500048080A3C031D7F2F4A082F3C03187E2FA9
:100E60004A08393C031C7E2FCC010A30CB004608CF
:100E7000CE004508CD004C084E068039D000CC1F6E
:100E8000462FCB09CC09CB0A0319CC0ACE1F4D2F14
:100E9000CD09CE09CD0A0319CE0A1030CF00F701D3
:100EA000FA01CC0CCB0C031C5B2F4D08F707031881
:100EB000FA0A4E08FA07FA0CF70CF90CF80CCF0BEB
:100EC000512FD01F682FF809F909F80A0319F90AF8
:100ED0007908CC007808CB0030304A024B07C500B7
:100EE0004C08C6000318C60A4908C90A430784000B
:100EF0008313441883170008CA002C2FE82F4808D2
:100F0000103C031DE82F4A08603C03188E2F4A0846
:100F10007A3C031C8E2F4A08DF398F2F4A08CA00FB
:100F20004A082F3C0318982F4A08393C0318A02F71
:100F30004A08403C0318E82F4A08463C031CE82FA7
:100F40004A082F3C0318BD2F4A08393C031CBD2F0B
:100F5000450DCB00460DCC00CB0DCC0DCB0DCC0DF3
:100F6000CB0DCC0DF030CB0530304A024B07C5001D
:100F70004C08C6000318C60AD22F450DCB00460DFB
:100F8000CC00CB0DCC0DCB0DCC0DCB0DCC0DF03062
:100F9000CB0541304A020A3E4B07C5004C08C6004B
:100FA0000318C60A4908C90A430784008313441872
:100FB00083170008CA00603C0318E52F4A087A3CF2
:100FC000031CE52F4A08DF39E62F4A08CA00902F94
:100FD00048080A3C031DF32F470BF32FC509C60928
:100FE000C50A0319C60A4508F8004608F9008A151B
:040FF0000A12632D51
:101000000408CC004B08CE00031993284A08D700E7
:101010004908D6004808D5004708D400DB01DA01AA
:101020002030D9008230D800540803198528DC000C
:10103000580803198528DC07031C1F2826287F3041
:10104000DC02031C8528031985282A288130DC0747
:10105000031885285C08F700F801F901FA01550822
:10106000E000E0175608DF005708DE001830DC000B
:10107000DD015E1C53285B08FA07031C4528F90AAA
:10108000031D4528F80A0319DD175A08F907031C40
:101090004C28F80A0319DD175908D600D617560848
:1010A000F8070318DD17DD0DF80CF90CFA0CE00C4D
:1010B000DF0CDE0C0310DC0B38280130F7070318B7
:1010C0008528F81B6A28E00DFA0DF90DF80DF703D5
:1010D00003198528E01F7B28FA0A031D7B28F90ADB
:1010E000031D7B28F80A031D7B28F80CF90CFA0C69
:1010F000F70A031985285508DD005908DD06DD1FAC
:101100008328F8178928F8138928F701F801F901CD
:10111000FA017A08CA007908C9007808C800770877
:10112000C700CE0B06284A08D7004908D600480851
:10113000D5004708D4005408B63CD400FA0155083D
:10114000D800D5170310D50CD60CD70CFA0CF90C17
:10115000F80CF70CD40BA228D81FB928F709F80906
:10116000F909FA09F70A0319F80A0319F90A031920
:10117000FA0A7A08CA007908C9007808C80077080E
:10118000C700CA1FD028CC03CC16C709C809C90993
:10119000CA09C70A0319C80A0319C90A0319CA0ADE
:1011A0003B30D3009A30D200CA30D100D0010A308F
:1011B000CE004B080319CC0A8314473084008313F4
:1011C0004A08D7004908D6004808D5004708D40087
:1011D0005308DB005208DA005108D9005008D80043
:1011E0008A1179268A157808F708031D0A294B0AFF
:1011F0004E0203190A294C0803190C290F394E0213
:101200000319042903184429CC1B44294C1B0C291D
:1012100020303E292030CC05CC1E1C29CC124B0896
:10122000031DCC037708CC002D30D4008A11712522
:101230008A154C08F700CC014B084E02031D2C29DF
:101240007708CC002E30D4008A1171258A154C08FD
:10125000F7002030CC0500303030CC1E3E29CC12B7
:101260004B08031DCC037708CC002D30D4008A1125
:1012700071258A154C08F700CC013030F707770844
:10128000D4008A1171258A1583105308D70052089B
:10129000D6005108D5005008D400DB01DA01D9018D
:1012A0000A30D8008A1179268A157A08D30079087D
:1012B000D2007808D1007708D000CE0BDC288A1540
:1012C0000A12BB2A0030F8001F08C73978049F00B3
:1012D0005330F700F70B6A291F151F196D291E08D7
:1012E000FA0083161E088312C7007A08C80001306E
:1012F000CA00F430C9004808CC004708CB008A1166
:101300000D268A157908FA007808C7007A08C800FF
:101310008E30F7004808F8004708F900FA01F8088D
:10132000031D9C297908F800F9010830F702F80834
:10133000031D9C29F701A4290310F81BA329F90D0B
:10134000F80DF7039C29F8137A08CA007908C90038
:101350007808C8007708C7004A08CE004908CD00C1
:101360004808CC004708CB00D201C030D1007F3004
:10137000D0008830CF004B080319802AD7004F08CF
:101380000319802AD702031CCA297F30D707031804
:10139000802AD0298130D702031C802A0319802A91
:1013A0005708F700F801F901FA01D6014C08D500F9
:1013B000D5174D08D4004E08D3001930D700520875
:1013C000D3020318F3290130D4020318F329D502FC
:1013D0000318F329D6020318F329D60AD50AD40A2A
:1013E0005208D307252A5108D40203180E2A0130C7
:1013F000D50203180E2AD60203180E2AD60AD50AD9
:101400005108D4075208D307031C252AD40A031D08
:10141000252AD50A031D252AD60A252A50088038F0
:10142000D5020318242A0130D6020318242AD60A2A
:1014300050088038D5075108D407031C022AD50A62
:10144000031D022AD60A022A7A14D70B282A332A25
:101450000310D30DD40DD50DD60D0310FA0DF90DD3
:10146000F80DD80DDF29581C3B2A0310F80CF90C95
:10147000FA0CD80C3E2AF7030319802AD81B672AD6
:101480000310D30DD40DD50DD60D5208D302031879
:10149000532A0130D4020318532AD5020318532AC1
:1014A000D602031C762A5108D40203185E2A0130A2
:1014B000D50203185E2AD602031C762A500880380B
:1014C000D5020318672A0130D602031C762AFA0ACD
:1014D000031D762AF90A031D762AF80A031D762AC7
:1014E000F70A0319802AF80CF90CFA0C4C08D700FB
:1014F0005008D706D71F7E2AF817842AF813842AA3
:10150000F701F801F901FA017A08C6007908C50067
:101510007808C4007708C3000130D500D6008A11CE
:101520005F258A15F43003178D0000308F008A1173
:1015300003139D258A150130D5000230D6008A118B
:101540005F258A15FC3003178D0000308F000310D3
:1015500006300313C7008A1122268A1589308400B9
:101560004608CA004508C9004408C8004308C70027
:101570000230CB0000288A150A125A2D4B08F801B8
:101580004A020318C62A4A08F700D22AF70108308F
:10159000CC00CA0DF70D4B0877020318F700F80DC1
:1015A000CC0BC92A08000130D500D6008A115F256E
:1015B0008A15CC3003178D0000308F008A11031379
:1015C0009D258A150130D5000230D6008A115F258D
:1015D0008A15D03003178D0000308F0003100C30B7
:1015E0000313C7008A1122268A154308C400183045
:1015F000C5002030451E3030C6004408F700C41F27
:10160000092BF709F70A7708C4002D30C600C51763
:1016100045144408CA006430CB00BE227708C400D9
:1016200030307807C7004408CA000A30CB00BE2219
:1016300030307707C90030307807C8004608F70017
:10164000303047020319282BC514C51B45153C2B08
:101650004608C7002030C600303048020319342B3A
:101660004514C51BC5143C2B031D4514031D3C2B01
:101670004708C8002030C7004519432BC518482B20
:1016800045184D2B522B4608D4008A1171258A1516
:101690004708D4008A1171258A154808D4008A1198
:1016A00071258A154908D4008A1171258A154308C5
:1016B000643C031CA82BCA014308C9000230CC00BB
:1016C0007030CB008A110D268A157908C50078087C
:1016D000C4004508C7004408C600C9016430C800FA
:1016E000F801F901F701FA014908031D7A2B4808AE
:1016F0000319942B1030CA000310C60DC70DF70D47
:10170000FA0D49087A02031D872B48087702031C4B
:10171000902B4808F702031CFA034908FA02031445
:10172000F80DF90DCA0B7C2B7908C5007808C400A8
:10173000C50CC40CC50CC40CC50C44089500C50CE4
:10174000450C3039F7001708CF3977049700A92BDB
:1017500095018A150A12692DC3080319DB2B013084
:10176000D500D6008A115F258A15013003178D0038
:1017700001308F008A1103139D258A150130D50091
:101780000230D6008A115F258A15083003178D00B4
:1017900001308F008A1103139D258A152610260813
:1017A0008316870083120714A61026088316870065
:1017B00083128710062C0130D500D6008A115F25D0
:1017C0008A15103003178D0001308F008A11031322
:1017D0009D258A150130D5000230D6008A115F257B
:1017E0008A15173003178D0001308F008A110313FB
:1017F0009D258A1526102608831687008312071058
:10180000A61026088316870083128710080001306F
:10181000D500D6008A115F258A15D83003178D00B0
:1018200000308F008A1103139D258A150130D500E1
:101830000230D6008A115F258A15DE3003178D002D
:1018400000308F008A1103139D258A1583168601A7
:10185000FF30831286008A150A127B2D0130D500D5
:10186000D6008A115F258A15E63003178D000030F7
:101870008F008A1103139D258A150130D50002308F
:10188000D6008A115F258A15ED3003178D000030D0
:101890008F008A1103139D258A15831686018312F2
:1018A00086018A150A12802D0130D500D6008A11D2
:1018B0005F258A151F3003178D0001308F008A11B4
:1018C00003139D258A150130D5000230D6008A11F8
:1018D0005F258A15253003178D0001308F008A118E
:1018E00003139D258A158A150A12852D03081F39B1
:1018F0008300813083169900A630980090308312BF
:101900009800FF30A600A801A70183161F149F149A
:101910001F159F1107309C0083138312A001A101A2
:101920003530BD003030BE00BF01C0018A111A2A17
:101930008A1583161F109F141F159F151F138312DE
:101940001F179F1783169F1783121F140030F8006C
:101950001F08C73978049F005330F700F70BAE2CEF
:101960002611260883168700831207110C30970072
:101970003A30831688000030F8000638831292004F
:101980009B308316920083129501C10148300317E2
:101990008D0000308F008A11031360228A155C309D
:1019A00003178D0000308F008A11031360228A15FF
:1019B000703003178D0000308F008A1103136022EE
:1019C0008A15843003178D0000308F008A110313AD
:1019D00060228A15993003178D0000308F008A111C
:1019E000031360228A159F3003178D0000308F008B
:1019F0008A11031360228A15A83003178D00003066
:101A00008F008A11031360228A15AE3003178D00F0
:101A100000308F008A11031360228A15B530031736
:101A20008D0000308F008A11031360228A15BD30AB
:101A300003178D0000308F008A11031360228A156E
:101A4000C43003178D0000308F008A110313602209
:101A50008A158A11B8228A15C4012930C3008A1157
:101A6000C42A8A157808C000C0080319882DC4014B
:101A70002930C300C6013D30C5008A112D2C8A15BE
:101A80007808C2008A11F32D8A154208013A031919
:101A9000592D033A03195E2D013A03196D2D073AAA
:101AA0000319742D013A03197A2D033A03197F2D76
:101AB000842D62298A11B8228A15882DC4013D30EF
:101AC000C3008A11C82E8A157808C1004108C300D6
:101AD000D32A8A11B8228A15882D0130C300AC237D
:101AE0008A11B8228A15882DC301AC238A11B82225
:101AF0008A15882D072C8A11B8228A15882D2E2C3C
:101B00008A11B8228A15882D542C8A11B8228A1578
:101B10001030F700F70B8A2D00002C2D0030F80054
:021B2000630060
:02400E00723FFF
:00000001FF
;PIC16F877A
;CRC=B8FC  CREATED="30-nov.-23 09:58"
