:1000000009308A00452900000A108A100A11820767
:10001000743465346D3470346534723461347434DE
:1000200075347234613400340A108A100A11820760
:100030006D346F3474346F34723420346F346E34F2
:1000400000340A108A100A1182076D346F34743438
:100050006F34723420346F346634663400340A10DE
:100060008A100A1182076C34653464347334203486
:100070006F346E3400340A108A100A1182076C340F
:1000800065346434733420346F3466346634003439
:10009000D030F230A031E136E2346139A03A6E104E
:1000A000E3376E3AF2376C107039E539E937EE32E2
:1000B000A0326C10E237F4376E1720050A00C33AFD
:1000C0006137E437A03AF434EC34E332A0326C10F8
:1000D000ED37E437203A6539ED34EE306C16A03A4E
:1000E000F33072106536A031EF366137E4373A10DD
:1000F0002738F7363D1CB0130A00C3376D10F432B1
:100100006D386539613A75396100D4326D386539B9
:10011000613A7539611D0001C3376D10ED37F43751
:1001200072106F370001CD37F43772106537E33244
:100130006E3269326F00C3376D10ED37F4377210CD
:100140006F336600CD37F437F23273106138E13324
:1001500061326F00C3376D10EC32E439A0376E00A6
:10016000CC32E439A032EE316537E434E437730041
:10017000C3376D10EC32E439A03766330001CC325E
:10018000E439A030F030E730E4377300C337ED30A6
:100190006E326F10EE370001F232E337EE37E334A0
:1001A000E4370000C3376D10F03B6D00D332EE34FE
:1001B00061362038F7363A10253200002010201022
:1001C00020102010201020102010201000012010DE
:1001D00020102010201020102010201020100000CF
:1001E0004B30840083130008031903290630F800FC
:1001F000F701F70BF928F80BF8287B30F700F70B1D
:10020000FF28800BF628080052180829081209292F
:100210000816831608128312D21810298812112981
:10022000881683168812831252191829081319295F
:100230000817831608138312D2192029881321293D
:100240008817831688130000831208158316081177
:100250000330F700F70B2A298312081183160811BF
:1002600083120800D3018316081600308312081A7F
:100270000130D3048316881600308312881A0130A7
:10028000F7000310F70D7708D30483160817003022
:100290008312081B0130F700F70DF70DFC30F7054E
:1002A0007708D3048316881700308312881B013027
:1002B000F700F70DF70DF70DF830F7057708D304C1
:1002C0005308F800080083160811081088108312DC
:1002D0000810831608100816881608178817831246
:1002E00088148316881000008312081583160811DD
:1002F0000000831232217808D200081183160811F9
:10030000000083120815831608118629872900002A
:10031000831232217808D1000811831608110812BF
:100320008812081388138312520EF700F030F70575
:1003300077085104F8007808D100D11FA12983164D
:100340006B29CF08031DA6290810A72908148316B6
:100350000810000083128810831688100000831292
:100360000811831608118312500ED1000F30D105E9
:100370005108D200042150080F39D100D2000421C5
:1003800008002830C4000C30C5000130C60006301B
:10039000C70008118316081183120810831608106D
:1003A0008312881083168810081288120813881385
:1003B0000811081088100F308312CB00F020013094
:1003C000C3004308033C031CED290330D200042181
:1003D0000530CB00F020C30AE1290230D20004210D
:1003E0000530CB00F020C3014308033C031C042A62
:1003F00044304307840083130008C800CF01480835
:10040000D0006321C30AF4298A150A1267290B0850
:10041000C3008B13831603178C170C140000000005
:1004200083120313C31B8B1703170C087F3903199F
:100430005D2A0313C30003170D080313C400031739
:100440000F080313C50043080C1E242A9900440812
:1004500003178D000313450803178F0003130B08C0
:10046000C6008B13831603178C170C1400000000B2
:1004700083120313C61B8B1703170C0D0E0D7F3948
:1004800003195D2A0313C30003170D080313C400E7
:1004900003170F080313C50043080C1E4D2A9900CB
:1004A000440803178D000313450803178F008D0AB6
:1004B00003198F0A0313072A0317031308008C1E5E
:1004C000742A430884008313441883178403840A1E
:1004D0008C1E682A1A0880000D300002031D672A4E
:1004E00080010130F800762A0030F8008A150A12DF
:1004F00095296D086E040319812A6E08FA006D08AB
:10050000842A2108FA002008F1007A08F200720813
:10051000F6007108F5007008FC006F08FB00760813
:10052000FE007508FD007E08FA007D088400831334
:100530007A18831780080319D62A7C088316A1002D
:100540007B08A0002108FA002008840083137A1891
:1005500083178008031DB92A75087D02F7007E08FD
:10056000FA007608031C760FFA027708F800E22AF0
:10057000CD2A7E08FA007D08840083137A18831739
:100580000008A2002108FA002008840083137A18CA
:100590008317000822020319D12AA00A0319A10A0D
:1005A000A22AFD0A0319FE0A8312932A75087D0206
:1005B000F7007E08FA007608031C760FFA02770827
:1005C000F80083167808F1070318F20A7208FA0097
:1005D0007108840083137A1883178008031DF42A96
:1005E0000030F800F900882B7208F6007108F50059
:1005F0007008FC0083126F08FB007608FE00750887
:10060000FD007E08FA007D08840083137A188317A2
:10061000800803193C2B7C088316A1007B08A000EE
:100620002108FA002008840083137A1883178008B1
:100630000319372B7E08FA007D08840083137A188B
:1006400083170008A2002108FA0020088400831301
:100650007A18831700082202031D332B7D08F80047
:100660007E08F900402BA00A0319A10A102BFD0AED
:100670000319FE0A8312012B0030F800F9008316DB
:100680007908F4007808F300F308031D4A2BF408F6
:1006900003195A2B7308840083137418831780017D
:1006A000F30A0319F40A74088312A1007308A00066
:1006B000832B83167208F6007108F5007608FC009B
:1006C0007508FB007C08FA007B08840083137A1805
:1006D000831780080319702BFB0A0319FC0A622B8D
:1006E00075087B02F7007C08FA007608031C760F79
:1006F000FA027708F800780871078312A0007208E0
:10070000A1000318A10A7108F8007208F900831605
:10071000831208007008FA006F08840083137A18A7
:1007200083170008F3007208FA007108840083132D
:100730007A18831700087302031DB52B7008FA009E
:100740006F08840083137A1883178008031DAB2B6E
:100750000030F800CD2B7008FA006F08EF0A03197B
:10076000F00AF10A0319F20A8A2B7008FA006F08DE
:1007700084008313701883170008F3007208FA00CE
:10078000710884008313721883170008730203181A
:10079000CB2BFF30CC2B0130F80008003D30C700D8
:1007A000C8014408F0004308EF00EE014930ED00B5
:1007B0006F0884008313701883170008F1006D0818
:1007C000840083136E188317710880008008031952
:1007D000EC2BED0AEF0AD82BEE014930ED00F001C9
:1007E0004730EF0079227908DE007808DD00EE015D
:1007F000ED01F0014730EF0079227908E000780838
:10080000DF005D085E040319EC2CF8010C30F700E2
:10081000613084008313780804208000F80A840A79
:10082000F70B0B2C5E08F0005D08EF00F201613061
:10083000F1008A23F808031D202C0130F800EE2C6B
:100840007030E1007730E2006D30E300E4015E08D3
:10085000F0005D08EF00F2016130F1008A23F80832
:10086000031D802C5F0860040319802C6008EE00D3
:100870005F08ED006E08FA006D08840083137A1893
:100880008317800803195C2C6E08FA006D08840039
:1008900083137A1883170008EF006F082F3C0318A2
:1008A000552C6F08393C0318582C0030F8005E2C8A
:1008B000ED0A0319EE0A3A2C0130F800F808031982
:1008C000802C6008F0005F08EF004608EE00450845
:1008D000ED006F0884008313701883170008F1007F
:1008E0006D08840083136E188317710880008008D8
:1008F00003197D2CED0AEF0A692C0230F800EE2C6A
:10090000F8010930F700613084008313780814205F
:100910008000F80A840AF70B862C5E08F0005D0858
:10092000EF00F2016130F1008A23F808031D9B2CCF
:100930000330F800EE2CF8010A30F7006130840033
:100940008313780821208000F80A840AF70BA12C71
:100950005E08F0005D08EF00F2016130F1008A23CB
:10096000F808031DB62C0430F800EE2CF80108300E
:10097000F70061308400831378082F208000F80A84
:10098000840AF70BBC2C5E08F0005D08EF00F20152
:100990006130F1008A23F808031DD12C0530F800DE
:1009A000EE2CF8010930F7006130840083137808D9
:1009B0003B208000F80A840AF70BD72C5E08F00071
:1009C0005D08EF00F2016130F1008A23F808031D91
:1009D000EC2C0630F800EE2C0030F8008A150A12D4
:1009E000A3294C0BF42CF72C4030CD00F82CCD0172
:1009F00001304B02CD074D088038CE00CF014E08A4
:100A0000D000632108004A08073A0319112D0B3A58
:100A10000319162D063A03191E2D023A0319242D27
:100A2000292D0130CB00CC00F1242E2DCF01013037
:100A3000D00063210230CB00F0202E2D0130CB00FE
:100A40000230CC00F1242E2DCF011030D0006321D4
:100A50002E2D0130CF004A08D000632108000B087A
:100A6000C4008B13831603178C170C1400000000AE
:100A700083120313C41B8B1703170C087F39031948
:100A8000832D0313C40003170D080313C5000317B8
:100A90000F080313C6004408CA00032545080317BE
:100AA0008D000313460803178F0003130B08C700BC
:100AB0008B13831603178C170C140000000083128D
:100AC0000313C71B8B1703170C0D0E0D7F3903196A
:100AD000832D0313C40003170D080313C500031768
:100AE0000F080313C6004408CA000325450803176E
:100AF0008D000313460803178F008D0A03198F0A10
:100B000003132F2D0317031308000130CB00CC0073
:100B1000F124DE3003178D0000308F0003132F25E2
:100B20000130CB000230CC00F124E73003178D00F8
:100B300000308F0003132F258A150A12A829C90136
:100B4000C7010A30C800C601C50143084404031D9B
:100B5000AD2D0030F800F900D22E4908C90A43072C
:100B600084008313441883170008CA004A082D3CE8
:100B7000031DC62D0130C7004908C90A4307840078
:100B80008313441883170008CA00D32D4A082B3C4E
:100B9000031DD32D4908C90A430784008313441851
:100BA00083170008CA004A082F3C0318C32E4A08BE
:100BB000393C031CC32E4A08303C031DFF2D490855
:100BC000430784008313441883170008783C0319F3
:100BD000F32D490843078400831344188317000842
:100BE000583C031DFF2D1030C800C90A4908C90A26
:100BF000430784008313441883170008CA00480879
:100C00000A3C031D522E4A082F3C0318512E4A0855
:100C1000393C031C512ECC010A30CB004608CE00D3
:100C20004508CD004C084E068039D000CC1F1D2E43
:100C3000CB09CC09CB0A0319CC0ACE1F242ECD092F
:100C4000CE09CD0A0319CE0A1030CF00F701FA0100
:100C5000CC0CCB0C031C322E4D08F7070318FA0AF4
:100C60004E08FA07FA0CF70CF90CF80CCF0B282EEB
:100C7000D01F3F2EF809F909F80A0319F90A303094
:100C80004A027807C5007908C6000318C60A490851
:100C9000C90A430784008313441883170008CA0055
:100CA000032EC32E4808103C031DC32E4A08603C87
:100CB0000318612E4A087A3C031C612E4A08DF396A
:100CC000622E4A08CA004A082F3C03186B2E4A08B5
:100CD000393C0318732E4A08403C0318C32E4A08B7
:100CE000463C031CC32E4A082F3C0318942E4A0886
:100CF000393C031C942E450DCB00460DCC00CB0D8A
:100D0000CC0DCB0DCC0DCB0DCC0DF030CB05303058
:100D10004A024B07F8004C08FA000318FA0A780850
:100D2000C5007A08C600AD2E450DCB00460DCC009F
:100D3000CB0DCC0DCB0DCC0DCB0DCC0DF030CB05B0
:100D400041304A020A3E4B07F8004C08FA000318EB
:100D5000FA0A7808C5007A08C6004908C90A430794
:100D600084008313441883170008CA00603C0318EA
:100D7000C02E4A087A3C031CC02E4A08DF39C12E17
:100D80004A08CA00632E48080A3C031DCE2E470BB2
:100D9000CE2EC509C609C50A0319C60A4508F800BA
:100DA0004608F9008A150A12E2294B08F8014A029E
:100DB0000318DD2E4A08F700E92EF7010830CC00B1
:100DC000CA0DF70D4B0877020318F700F80DCC0B8E
:040DD000E02E080009
:101000000130CB00CC008A11F1248A15D2300317AD
:101010008D0000308F008A1103132F258A150130AF
:10102000CB000230CC008A11F1248A15D630031788
:101030008D0000308F0003100C300313C4000B0828
:10104000C5008B13831603178C170C1400000000C7
:1010500083120313C51B8B170318582803170C089A
:101060007F390313C50003170D080313C6000317C8
:101070000F080313C7004508CA008A1103258A1503
:10108000460803178D000313470803178F00031347
:101090000B08C8008B13831603178C170C14000061
:1010A000000083120313C81B8B17C40B5828792820
:1010B00003170C0D0E0D7F390313C50003170D0820
:1010C0000313C60003170F080313C7004508CA001F
:1010D0008A1103258A15460803178D000313470854
:1010E00003178F008D0A03198F0A03100313C40B13
:1010F0001F284308C4001830C5002030451E30307A
:10110000C6004408F700C41F8D28F709F70A7708BE
:10111000C4002D30C600C51745144408CA00643009
:10112000CB008A11D5268A157708C400303078079D
:10113000C7004408CA000A30CB008A11D5268A1598
:1011400030307707C90030307807C8004608F7000C
:10115000303047020319B028C514C51B4515C428F3
:101160004608C7002030C600303048020319BC28AA
:101170004514C51BC514C428031D4514031DC428EC
:101180004708C8002030C7004519CB28C518D0280B
:101190004518D528DA284608CA008A1103258A1579
:1011A0004708CA008A1103258A154808CA008A110F
:1011B00003258A154908CA008A1103258A154308A0
:1011C000643C031C4129C5014308C4000230C70028
:1011D0007030C6001030C800F701FA01C50CC40C0D
:1011E000031CF8284608F7070318FA0A4708FA0705
:1011F000FA0CF70CF90CF80CC80BEE287908C500AE
:101200007808C4004508C7004408C600C901643016
:10121000C800F801F901F701FA014908031D132973
:10122000480803192D291030CA000310C60DC70D38
:10123000F70DFA0D49087A02031D202948087702A4
:10124000031C29294808F702031CFA034908FA027B
:101250000314F80DF90DCA0B15297908C500780893
:10126000C400C50CC40CC50CC40CC50C44089500C6
:10127000C50C450C3039F7001708CF3977049700B3
:10128000422995018A150A12882A03081F3983000A
:10129000813083169900A630980090308312980010
:1012A000FF30A600A801A70183161F149F141F1565
:1012B0009F1107309C0083138312A001A1013530D8
:1012C000BD003030BE00BF01C0018A11C1298A159E
:1012D0002611260883168700831207110C30970009
:1012E0003A30831688000030F800063883129200E6
:1012F0009B308316920083129501C1014830031779
:101300008D0000308F008A11031307228A155F3089
:1013100003178D0000308F008A11031307228A15EE
:10132000C4012930C3008A115F2A8A157808C000D9
:10133000C0080319882AC4012930C300C6013D3002
:10134000C5008A11CE2B8A157808C2008A11852D16
:101350008A154208013A0319BD29033A0319DD2908
:10136000013A0319E929073A0319092A013A03192D
:10137000292A033A0319492A692A0130CB00CC00F3
:101380008A11F1248A157D3003178D0000308F00FB
:101390008A1103132F258A150130CB000230CC00AF
:1013A0008A11F1248A15853003178D0000308F00D3
:1013B0008A1103132F258A15882AC4013D30C300E2
:1013C0008A119F2D8A157808C1004108C3000028A2
:1013D000882A0130CB00CC008A11F1248A158C3088
:1013E00003178D0000308F008A1103132F258A15F3
:1013F0000130CB000230CC008A11F1248A159330E1
:1014000003178D0000308F008A1103132F258A15D2
:10141000882A0130CB00CC008A11F1248A159B3038
:1014200003178D0000308F008A1103132F258A15B2
:101430000130CB000230CC008A11F1248A15A23091
:1014400003178D0000308F008A1103132F258A1592
:10145000882A0130CB00CC008A11F1248A15AA30E9
:1014600003178D0000308F008A1103132F258A1572
:101470000130CB000230CC008A11F1248A15B03043
:1014800003178D0000308F008A1103132F258A1552
:10149000882A0130CB00CC008A11F1248A15B8309B
:1014A00003178D0000308F008A1103132F258A1532
:1014B0000130CB000230CC008A11F1248A15BF30F4
:1014C00003178D0000308F008A1103132F258A1512
:1014D000882A0130CB00CC008A11F1248A15C6304D
:1014E00003178D0000308F008A1103132F258A15F2
:1014F0000130CB000230CC008A11F1248A15CC30A7
:1015000003178D0000308F008A1103132F258A15D1
:101510001030F700F70B8A2A000090290030F800FD
:02152000630066
:02400E00723FFF
:00000001FF
;PIC16F877A
;CRC=6DF2  CREATED="30-nov.-23 01:22"
