:1000000009308A00452900000A108A100A11820767
:10001000743465346D3470346534723461347434DE
:1000200075347234613400340A108A100A11820760
:100030006D346F3474346F34723420346F346E34F2
:1000400000340A108A100A1182076D346F34743438
:100050006F34723420346F346634663400340A10DE
:100060008A100A1182076C34653464347334203486
:100070006F346E3400340A108A100A1182076C340F
:1000800065346434733420346F3466346634003439
:100090005039EF3CE531F437202369376136A0262B
:1000A000E931F237E3376D38753A61326F39E1394A
:1000B0002E100D050D050000BD1EBD1EBD1EBD1E72
:1000C000BD1EBD1EBD1EBD1EBD1EBD1EBD1EBD1E58
:1000D000BD1EBD1EBD1EBD1EBD1EBD1EA0060A004E
:1000E000BD1EBD1EBD1EA0244E2A45295029452AED
:1000F0004510C422A021CF264127C4275310BD1E7E
:10010000BD1EBD1EA0060A00BD1EBD1EBD1EBD1E1D
:10011000BD1EBD1EBD1EBD1EBD1EBD1EBD1EBD1E07
:10012000BD1EBD1EBD1EBD1EBD1EBD1EA0068A0677
:100130000A003117203AE536F032F230F43AF23064
:100140000D05000132172038F736BD18B0060A0039
:100150003317A0366F3A6F39A037EE060A0034170E
:10016000A0366F3A6F39A03766330D050001351799
:100170002036653273106F370D05000136172036B3
:10018000653273106F33E6068A060A00C3376D10B6
:10019000F4326D386539613A75396100D4326D38A1
:1001A0006539613A7539611D0001C3376D10ED374E
:1001B000F43772106F370001CD37F437721065379E
:1001C000E3326E3269326F00C3376D10ED37F437AA
:1001D00072106F336600CD37F437F2327310613826
:1001E000E13361326F00C337ED306E326F10EE379E
:1001F0000001F232E337EE37E334E4370001C3376E
:10020000ED306E326F10EE372039E5316F37EF3158
:100210006932EF060A00C3376D10F03B6D00D33230
:10022000EE3461362038F7363A1025320000C337F5
:100230006D10EC32E439A0376E00CC32E439A032D4
:10024000EE316537E434E4377300C3376D10EC32B8
:10025000E439A03766330001CC32E439A030F03005
:10026000E730E437730020102010201020102010F9
:10027000201020102010000120102010201020102D
:100280002010201020102010000049376739E53970
:100290006110F43AA031EF366137E4373A100D05BA
:1002A00000014B30840083130008031964290630D1
:1002B000F800F701F70B5A29F80B59297B30F700A2
:1002C000F70B6029800B572908005218692908127A
:1002D0006A290816831608128312D2187129881207
:1002E00072298816831688128312521979290813E5
:1002F0007A290817831608138312D21981298813C3
:100300008229881783168813000083120815831624
:1003100008110330F700F70B8B298312081183169D
:10032000081183120800D3018316081600308312C7
:10033000081A0130D3048316881600308312881AF5
:100340000130F7000310F70D7708D3048316081760
:1003500000308312081B0130F700F70DF70DFC3059
:10036000F7057708D3048316881700308312881B9B
:100370000130F700F70DF70DF70DF830F7057708A6
:10038000D3045308F80008008316081108108810D9
:100390008312081083160810081688160817881785
:1003A00083128814831688100000831208158316A0
:1003B00008110000831293217808D20008118316D7
:1003C000081100008312081583160811E729E8298F
:1003D0000000831293217808D100081183160811B8
:1003E00008128812081388138312520EF700F03097
:1003F000F70577085104F8007808D100D11F022AC8
:100400008316CC29CF08031D072A0810082A0814D0
:1004100083160810000083128810831688100000CD
:1004200083120811831608118312500ED1000F3069
:10043000D1055108D200652150080F39D100D200F2
:10044000652108002830C4000C30C5000130C6000A
:100450000630C7000811831608118312081083168E
:100460000810831288108316881008128812081347
:1004700088130811081088100F308312CB00512107
:100480000130C3004308033C031C4E2A0330D20052
:1004900065210530CB005121C30A422A0230D20027
:1004A00065210530CB005121C3014308033C031CE7
:1004B000652A44304307840083130008C800CF0135
:1004C0004808D000C421C30A552A8A150A12672990
:1004D0000B08C3008B13831603178C170C14000032
:1004E000000083120313C31B8B1703170C087F39FB
:1004F0000319BE2A0313C30003170D080313C40016
:1005000003170F080313C50043080C1E852A990022
:10051000440803178D000313450803178F000313C6
:100520000B08C6008B13831603178C170C140000DE
:10053000000083120313C61B8B1703170C0D0E0D3F
:100540007F390319BE2A0313C30003170D080313D1
:10055000C40003170F080313C50043080C1EAE2A7E
:100560009900440803178D000313450803178F00F3
:100570008D0A03198F0A0313682A0317031308004F
:10058000453003178D0001308F00031368223E3081
:100590000C1EC82A990008008C1EE12A430884001A
:1005A0008313441883178403840A8C1ED52A1A08DF
:1005B00080000D300002031DD42A80010130F800B4
:1005C000E32A0030F8008A150A12E0297108720443
:1005D0000319EE2A7208FA007108F12A2108FA00BC
:1005E0002008F5007A08F6007608FE007508FD0080
:1005F00074088316A1007308A0007E08A3007D087C
:10060000A2002308FA002208840083137A188317B3
:1006100080080319422B2108A5002008A400250802
:10062000FA002408840083137A1883178008031DB6
:10063000262B7D082202F7002308FA007E08031CFF
:100640007E0FFA027708F8004D2B3A2B2308FA00A8
:100650002208840083137A1883170008A60025084F
:10066000FA002408840083137A18831700082602EE
:1006700003193E2BA40A0319A50A0F2BA20A03197A
:10068000A30A012B7D082202F7002308FA007E0846
:10069000031C7E0FFA027708F8007808F5070318A4
:1006A000F60A7608FA007508840083137A1883170F
:1006B0008008031D5F2B0030F800F900EF2B76084F
:1006C000FE007508FD007408A1007308A0007E08F4
:1006D000A3007D08A2002308FA00220884008313E7
:1006E0007A18831780080319A42B2108A500200875
:1006F000A4002508FA002408840083137A188317BD
:1007000080080319A02B2308FA0022088400831311
:100710007A1883170008A6002508FA002408840028
:1007200083137A18831700082602031D9C2B2208C6
:10073000F8002308F900A72BA40A0319A50A792BAE
:10074000A20A0319A30A6B2B0030F800F9007908FC
:10075000FC007808FB00FB08031DB12BFC08031903
:10076000C12B7B08840083137C1883178001FB0A4C
:100770000319FC0A7C088312A1007B08A000EA2B65
:1007800083167608FE007508FD007E08A1007D082E
:10079000A0002108FA002008840083137A18831728
:1007A00080080319D72BA00A0319A10AC92B7D08B9
:1007B0002002F7002108FA007E08031C7E0FFA02CF
:1007C0007708F800780875078312A0007608A10062
:1007D0000318A10A7508F8007608F9008316831239
:1007E00008007208FA007108840083137A188317CE
:1007F0000008F5007408FA007308840083137A185F
:10080000831700087502031D1C2C7208FA0071087A
:10081000840083137A1883178008031D122C00307C
:10082000F800342C7208FA007108F10A0319F20A70
:10083000F30A0319F40AF12B7208FA007108840014
:100840008313721883170008F5007408FA00730800
:100850008400831374188317000875020318322C60
:10086000FF30332C0130F80008004408F200430840
:10087000F100F0014730EF00710884008313721813
:1008800083170008F3006F08840083137018831720
:100890007308800080080319502CEF0AF10A3C2CE1
:1008A0003E30DD00DE01F2014730F100F4015D3041
:1008B000F300E6227908DC007808DB003D30E9002F
:1008C000EA015C08F2005B08F100F4016930F30012
:1008D000E6227908EC007808EB00F201F101F4015E
:1008E0006930F300E6227908EE007808ED006B0825
:1008F0006C040319622DF8010C30F7005D308400A0
:100900008313780804208000F80A840AF70B812CEE
:100910006C08F2006B08F100F4015D30F300F12384
:10092000F808031D962C0130F800642D7030DD00AE
:100930007730DE006D30DF00E0016C08F2006B08FC
:10094000F100F4015D30F300F123F808031DF62CEB
:100950006D086E040319F62C6E08F0006D08EF00A8
:100960007008FA006F08840083137A1883178008D0
:100970000319D22C7008FA006F08840083137A18C8
:1009800083170008F10071082F3C0318CB2C710865
:10099000393C0318CE2C0030F800D42CEF0A031990
:1009A000F00AB02C0130F800F8080319F62C6E0894
:1009B000F2006D08F1004608F0004508EF007108EC
:1009C00084008313721883170008F3006F088400F3
:1009D0008313701883177308800080080319F32CA1
:1009E000EF0AF10ADF2C0230F800642DF80109301B
:1009F000F7005D3084008313780814208000F80A23
:100A0000840AF70BFC2C6C08F2006B08F100F4016F
:100A10005D30F300F123F808031D112D0330F800B9
:100A2000642DF8010A30F7005D30840083137808E4
:100A300021208000F80A840AF70B172D6C08F200B9
:100A40006B08F100F4015D30F300F123F808031D99
:100A50002C2D0430F800642DF8010830F7005D30CB
:100A60008400831378082F208000F80A840AF70B8B
:100A7000322D6C08F2006B08F100F4015D30F300D8
:100A8000F123F808031D472D0530F800642DF80107
:100A90000930F7005D308400831378083B20800024
:100AA000F80A840AF70B4D2D6C08F2006B08F10070
:100AB000F4015D30F300F123F808031D622D0630C8
:100AC000F800642D0030F8008A150A12EE294C0B4C
:100AD0006A2D6D2D4030CD006E2DCD0101304B02C1
:100AE000CD074D088038CE00CF014E08D000C4217C
:100AF00008004A08073A0319872D0B3A03198C2D71
:100B0000063A0319942D023A03199A2D9F2D0130AC
:100B1000CB00CC006725A42DCF010130D000C4212B
:100B20000230CB005121A42D0130CB000230CC008B
:100B30006725A42DCF011030D000C421A42D013091
:100B4000CF004A08D000C42108000B08C4008B1352
:100B5000831603178C170C14000000008312031374
:100B6000C41B8B1703170C087F390319F92D0313C6
:100B7000C40003170D080313C50003170F08031360
:100B8000C6004408CA007925450803178D000313E1
:100B9000460803178F0003130B08C7008B13831637
:100BA00003178C170C140000000083120313C71BDB
:100BB0008B1703170C0D0E0D7F390319F92D031335
:100BC000C40003170D080313C50003170F08031310
:100BD000C6004408CA007925450803178D00031391
:100BE000460803178F008D0A03198F0A0313A52DDA
:100BF0000317031308000130CB00CC006725333006
:100C000003178D0001308F000313A5250130CB00A1
:100C10000230CC0067253C3003178D0001308F0077
:100C20000313A5258A150A12F329C901C7010A3041
:100C3000C800C601C50143084404031D232E00302B
:100C4000F800F900482F4908C90A430784008313B4
:100C5000441883170008CA004A082D3C031D3C2E87
:100C60000130C7004908C90A4307840083134418A8
:100C700083170008CA00492E4A082B3C031D492E41
:100C80004908C90A430784008313441883170008DE
:100C9000CA004A082F3C0318392F4A08393C031C64
:100CA000392F4A08303C031D752E4908430784003C
:100CB0008313441883170008783C0319692E4908E8
:100CC000430784008313441883170008583C031D0E
:100CD000752E1030C800C90A4908C90A43078400A4
:100CE0008313441883170008CA0048080A3C031DF0
:100CF000C82E4A082F3C0318C72E4A08393C031C4B
:100D0000C72ECC010A30CB004608CE004508CD00E6
:100D10004C084E068039D000CC1F932ECB09CC094D
:100D2000CB0A0319CC0ACE1F9A2ECD09CE09CD0AC3
:100D30000319CE0A1030CF00F701FA01CC0CCB0C0E
:100D4000031CA82E4D08F7070318FA0A4E08FA07E5
:100D5000FA0CF70CF90CF80CCF0B9E2ED01FB52E09
:100D6000F809F909F80A0319F90A30304A02780734
:100D7000C5007908C6000318C60A4908C90A43070E
:100D800084008313441883170008CA00792E392F72
:100D90004808103C031D392F4A08603C0318D72E21
:100DA0004A087A3C031CD72E4A08DF39D82E4A0855
:100DB000CA004A082F3C0318E12E4A08393C0318A0
:100DC000E92E4A08403C0318392F4A08463C031CC8
:100DD000392F4A082F3C03180A2F4A08393C031CB4
:100DE0000A2F450DCB00460DCC00CB0DCC0DCB0D05
:100DF000CC0DCB0DCC0DF030CB0530304A024B077B
:100E0000F8004C08FA000318FA0A7808C5007A08B6
:100E1000C600232F450DCB00460DCC00CB0DCC0DCD
:100E2000CB0DCC0DCB0DCC0DF030CB0541304A02B3
:100E30000A3E4B07F8004C08FA000318FA0A780833
:100E4000C5007A08C6004908C90A4307840083130D
:100E5000441883170008CA00603C0318362F4A085C
:100E60007A3C031C362F4A08DF39372F4A08CA005C
:100E7000D92E48080A3C031D442F470B442FC509AF
:100E8000C609C50A0319C60A4508F8004608F9004C
:100E90008A150A12302A4B08F8014A020318532F08
:100EA0004A08F7005F2FF7010830CC00CA0DF70D94
:100EB0004B0877020318F700F80DCC0B562F0800EB
:100EC0000130CB00CC006725173003178D000130AF
:100ED0008F000313A5250130CB000230CC0067251D
:100EE0001D3003178D0001308F000313A5258316D5
:100EF0008601FF30831286008A150A12822A013089
:100F0000CB00CC006725253003178D0001308F0002
:100F10000313A5250130CB000230CC0067252C300F
:100F200003178D0001308F000313A525831686015A
:0A0F3000831286018A150A12892A2D
:101000000130CB00CC008A1167258A150B300317FD
:101010008D0001308F008A110313A5258A15013038
:10102000CB000230CC008A1167258A150F300317D8
:101030008D0001308F0003100C300313C4000B0827
:10104000C5008B13831603178C170C1400000000C7
:1010500083120313C51B8B170318582803170C089A
:101060007F390313C50003170D080313C6000317C8
:101070000F080313C7004508CA008A1179258A158D
:10108000460803178D000313470803178F00031347
:101090000B08C8008B13831603178C170C14000061
:1010A000000083120313C81B8B17C40B5828792820
:1010B00003170C0D0E0D7F390313C50003170D0820
:1010C0000313C60003170F080313C7004508CA001F
:1010D0008A1179258A15460803178D0003134708DE
:1010E00003178F008D0A03198F0A03100313C40B13
:1010F0001F284308C4001830C5002030451E30307A
:10110000C6004408F700C41F8D28F709F70A7708BE
:10111000C4002D30C600C51745144408CA00643009
:10112000CB008A114B278A157708C4003030780726
:10113000C7004408CA000A30CB008A114B278A1521
:1011400030307707C90030307807C8004608F7000C
:10115000303047020319B028C514C51B4515C428F3
:101160004608C7002030C600303048020319BC28AA
:101170004514C51BC514C428031D4514031DC428EC
:101180004708C8002030C7004519CB28C518D0280B
:101190004518D528DA284608CA008A1179258A1503
:1011A0004708CA008A1179258A154808CA008A1199
:1011B00079258A154908CA008A1179258A154308B4
:1011C000643C031C4129C5014308C4000230C70028
:1011D0007030C6001030C800F701FA01C50CC40C0D
:1011E000031CF8284608F7070318FA0A4708FA0705
:1011F000FA0CF70CF90CF80CC80BEE287908C500AE
:101200007808C4004508C7004408C600C901643016
:10121000C800F801F901F701FA014908031D132973
:10122000480803192D291030CA000310C60DC70D38
:10123000F70DFA0D49087A02031D202948087702A4
:10124000031C29294808F702031CFA034908FA027B
:101250000314F80DF90DCA0B15297908C500780893
:10126000C400C50CC40CC50CC40CC50C44089500C6
:10127000C50C450C3039F7001708CF3977049700B3
:10128000422995018A150A12362A03081F3983005C
:10129000813083169900A630980090308312980010
:1012A000FF30A600A801A70183161F149F141F1565
:1012B0009F1107309C0083138312A001A1013530D8
:1012C000BD003030BE00BF01C0018A11222A8A153C
:1012D0002611260883168700831207110C30970009
:1012E0003A30831688000030F800063883129200E6
:1012F0009B308316920083129501C1014830031779
:101300008D0000308F008A11031368228A155C302B
:1013100003178D0000308F008A11031368228A158D
:10132000703003178D0000308F008A11031368227C
:101330008A15843003178D0000308F008A11031343
:1013400068228A15993003178D0000308F008A11AA
:10135000031368228A15A23003178D0000308F0016
:101360008A11031368228A15A83003178D000030F4
:101370008F008A11031368228A15AF3003178D007E
:1013800000308F008A11031368228A15B7300317C3
:101390008D0000308F008A11031368228A15BE3039
:1013A00003178D0000308F008A11031368228A15FD
:1013B0008A11C0228A15C4012930C3008A11CC2A9F
:1013C0008A157808C000C0080319B92AC401293059
:1013D000C300C6013D30C5008A11352C8A15780836
:1013E000C2008A11FB2D8A154208013A0319082A06
:1013F000033A03192B2A013A03193A2A073A031927
:101400005D2A013A0319802A033A0319872A8E2A92
:101410000130CB00CC008A1167258A15C63003172E
:101420008D0000308F008A110313A5258A15013025
:10143000CB000230CC008A1167258A15CE30031705
:101440008D0000308F008A110313A5258A158A119B
:10145000C0228A15B92AC4013D30C3008A11152E55
:101460008A157808C1004108C30000288A11C022EB
:101470008A15B92A0130CB00CC008A1167258A155C
:10148000D53003178D0000308F008A110313A52576
:101490008A150130CB000230CC008A1167258A15ED
:1014A000DC3003178D0000308F008A110313A5254F
:1014B0008A158A11C0228A15B92A0130CB00CC00C6
:1014C0008A1167258A15E43003178D0000308F00DC
:1014D0008A110313A5258A150130CB000230CC00F8
:1014E0008A1167258A15EB3003178D0000308F00B5
:1014F0008A110313A5258A158A11C0228A15B92AD3
:101500008A11602F8A158A11C0228A15B92A8A1178
:101510007F2F8A158A11C0228A15B92A0130CB0083
:10152000CC008A1167258A15F33003178D0000302F
:101530008F008A110313A5258A150130CB000230D4
:10154000CC008A1167258A15F93003178D00003009
:101550008F008A110313A5258A15FF3003178D000C
:1015600000308F008A11031368228A158A11C02265
:101570008A151030F700F70BBB2A0000DB2900307A
:04158000F80063000C
:02400E00723FFF
:00000001FF
;PIC16F877A
;CRC=3FC7  CREATED="30-nov.-23 01:53"
