:1000000005308A00882D0000FF00030E8301A10047
:100010000A08A0008A010408A2007708A300780853
:10002000A4007908A5007A08A60003170D08031399
:10003000A70003170F080313A80003170C080313E6
:10004000A90003170E080313AA00831383120B1EC3
:100050002B288B184C28220884002308F70024083A
:10006000F8002508F9002608FA00270803178D0074
:100070000313280803178F000313290803178C00A4
:1000800003132A0803178E00031320088A00210E89
:100090008300FF0E7F0E09008A110A1293280A10AE
:1000A0008A100A118207743465346D3470346534F3
:1000B00072346134743475347234613400340A102B
:1000C0008A100A1182076D346F3474346F347234BD
:1000D00020346F346E3400340A108A100A118207FB
:1000E0006D346F3474346F34723420346F3466344A
:1000F000663400340A108A100A1182076C346534A1
:100100006434733420346F346E3400340A108A102F
:100110000A1182076C3465346434733420346F34CC
:10012000663466340034831606148312061C9E2837
:10013000320B9C28B2019E280130B2001030F7002B
:10014000F70BA02800008B108A110A122B28D03040
:10015000F230A031E136E2346139A03A6E10E33773
:100160006E3AF2376C107039E539E937EE32A03269
:100170006C10E237F4376E1720050A00C33A613776
:10018000E437A03AF434EC34E332A0326C10ED37AB
:10019000E437203A6539ED34EE306C16A03AF3308E
:1001A00072106536A031EF366137E4373A102738E0
:1001B000F7363D1CB0130A00A021EF366137E43753
:1001C000203AE536F032F230F43AF23020052000E1
:1001D000202AE536F032F230F43AF2303A100A10C2
:1001E0000001A021EF366137E4372038F7362005CB
:1001F0002000203453346534F13461346C342034BD
:10020000703477346D343A3420340A342034003476
:10021000A021EF366137E437A0366F3A6F39A03747
:100220006E1020052000A0266F3A6F39E539A03204
:10023000EE316537E434E43773100A100001A02171
:10024000EF366137E437A0366F3A6F39A03766333F
:1002500020100A100001A0266F3A6F39E539A0304E
:10026000F030E730E43773100A100001A021EF36B8
:100270006137E4372036653273106F3720100A106B
:1002800000012026653273106537E3326E32693221
:10029000EF3920052000A021EF366137E437203602
:1002A000653273106F3366102005200020266532FA
:1002B00073106138E1336132EF3920052000A0214D
:1002C000EF366137E43720376F10F232E337EE371D
:1002D000E334E43720100A1000004B30840083130D
:1002E0000008031980290630F800F701F70B76297A
:1002F000F80B75297B30F700F70B7C29800B7329ED
:100300000800510EF039F7000F3008057704880017
:10031000000008140330F700F70B8C2908100800C0
:100320000808F700080E0F39F800080083160810B7
:1003300088100811831288100F3083160805F038D2
:100340008800831208150000081400009021780826
:10035000D100081000000814AD29AE29000090213A
:100360007808D00008100F30831608058800831223
:10037000510EF700F030F70577085004F8007808C0
:10038000D000D01B9C294E1C88104E1888140000E9
:100390000811000008104F0ED0000F30D005500893
:1003A000D10081214F080F39D000D10081210800F0
:1003B0002830C7000C30C8000130C9000630CA0020
:1003C0000810881008110F308316080588000810DF
:1003D000881008110F308312CB006D210130C60048
:1003E0004608033C031CFC290330D1008121053061
:1003F000CB006D21C60AF0290230D10081210530E1
:10040000CB006D21C6014608033C031C132A47306C
:100410004607840083130008CB00CE014B08CF00B1
:100420009621C60A032A8A110A12B62D0B08C600A5
:100430008B13831603178C170C1400000000831213
:100440000313C61B8B1703170C087F3903196C2A7B
:100450000313C60003170D080313C70003170F0883
:100460000313C80046080C1E332A990047080317D7
:100470008D000313480803178F0003130B08C900EE
:100480008B13831603178C170C14000000008312C3
:100490000313C91B8B1703170C0D0E0D7F3903199E
:1004A0006C2A0313C60003170D080313C7000317B4
:1004B0000F080313C80046080C1E5C2A9900470861
:1004C00003178D000313480803178F008D0A0319C3
:1004D0008F0A0313162A0317031308008C1E802AA1
:1004E000460884008313471883178403840A8C1EEC
:1004F000772A1A0880000D300002031D762A800139
:100500000030F8008A110A12012E660867040319E8
:100510008D2A6708FA006608902A2D08FA002C0830
:10052000EA007A08EB006B08EF006A08EE00690841
:10053000F1006808F0006F08F3006E08F20073081D
:10054000FA007208840083137A188317800803194D
:10055000E02A7108F5007008F4007508FA007408C4
:10056000840083137A1883178008031DC42A6E0839
:100570007202F7007308FA006F08031C6F0FFA028B
:100580007708F800EB2AD82A7308FA00720884006A
:1005900083137A1883170008F6007508FA007408A8
:1005A000840083137A188317000876020319DC2A63
:1005B000F40A0319F50AAD2AF20A0319F30A9F2A6D
:1005C0006E087202F7007308FA006F08031C6F0FC1
:1005D000FA027708F8007808EA070318EB0A6B08B4
:1005E000FA006A08840083137A1883178008031DB1
:1005F000FD2A0030F800F900892B6B08EF006A082B
:10060000EE006908F1006808F0006F08F3006E085A
:10061000F2007308FA007208840083137A188317B3
:1006200080080319422B7108F5007008F400750862
:10063000FA007408840083137A188317800803195A
:100640003E2B7308FA007208840083137A1883170C
:100650000008F6007508FA007408840083137A18FD
:10066000831700087602031D3A2B7208F8007308FE
:10067000F900452BF40A0319F50A172BF20A03199E
:10068000F30A092B0030F800F9007908ED0078082A
:10069000EC00EC08031D4F2BED0803195D2B6C08D3
:1006A000840083136D1883178001EC0A0319ED0A87
:1006B0006D08AD006C08AC00852B6B08EF006A0874
:1006C000EE006F08F1006E08F0007108FA00700883
:1006D000840083137A18831780080319732BF00A98
:1006E0000319F10A652B6E087002F7007108FA0011
:1006F0006F08031C6F0FFA027708F80078086A0782
:10070000AC006B08AD000318AD0A6A08F8006B086E
:10071000F90008006908FA006808840083137A1851
:1007200083170008EC006B08FA006A088400831342
:100730007A18831700086C02031DB52B6908FA00AC
:100740006808840083137A1883178008031DAB2B75
:100750000030F800CD2B6908FA006808E80A031990
:10076000E90AEA0A0319EB0A8A2B6908FA00680801
:1007700084008313691883170008EC006B08FA00E3
:100780006A08840083136B18831700086C0203182F
:10079000CB2BFF30CC2B0130F80008003D30CA00D5
:1007A000CB014708E9004608E800E7014C30E600C5
:1007B000680884008313691883170008EA00660834
:1007C00084008313671883176A0880008008031960
:1007D000EC2BE60AE80AD82BE7014C30E600E901E9
:1007E0004A30E80085227908D7007808D600E7016A
:1007F000E601E9014A30E80085227908D900780845
:10080000D800560857040319C12CF8010C30F70022
:100810005A308400831378084F208000F80A840A35
:10082000F70B0B2C5708E9005608E800EB015A308B
:10083000EA008A23F808031D202C0130F800C32C9D
:100840007030DA007730DB006D30DC00DD015708F6
:10085000E9005608E800EB015A30EA008A23F8085C
:10086000031D552C580859040319552C5908E90043
:100870005808E8004908E7004808E60068088400CE
:100880008313691883170008EA006608840083133D
:10089000671883176A08800080080319522CE60A3B
:1008A000E80A3E2C0230F800C32CF8010930F700AA
:1008B0005A308400831378085F208000F80A840A85
:1008C000F70B5B2C5708E9005608E800EB015A309B
:1008D000EA008A23F808031D702C0330F800C32CAB
:1008E000F8010A30F7005A308400831378086C202E
:1008F0008000F80A840AF70B762C5708E90056089E
:10090000E800EB015A30EA008A23F808031D8B2C1B
:100910000430F800C32CF8010830F7005A30840086
:10092000831378087A208000F80A840AF70B912C48
:100930005708E9005608E800EB015A30EA008A231C
:10094000F808031DA62C0530F800C32CF801093067
:10095000F7005A3084008313780886208000F80A54
:10096000840AF70BAC2C5708E9005608E800EB01A5
:100970005A30EA008A23F808031DC12C0630F8001B
:10098000C32C0030F8008A110A120D2E4B0BC92C13
:10099000CC2C4030CC00CD2CCC0101304A02CC070D
:1009A0004C088038CD00CE014D08CF0096210800BC
:1009B0004908073A0319E62C0B3A0319EB2C063ABF
:1009C0000319F32C023A0319F92CFE2C0130CA004A
:1009D000CB00C624032DCE010130CF00962102307A
:1009E000CB006D21032D0130CA000230CB00C6249C
:1009F000032DCE011030CF009621032D0130CE0003
:100A00004908CF00962108000B08C6008B138316F7
:100A100003178C170C140000000083120313C61B6D
:100A20008B1703170C087F390319582D0313C600C1
:100A300003170D080313C70003170F080313C8009B
:100A40004608C900D824470803178D000313480837
:100A500003178F0003130B08C9008B1383160317AA
:100A60008C170C140000000083120313C91B8B1792
:100A700003170C0D0E0D7F390319582D0313C600F3
:100A800003170D080313C70003170F080313C8004B
:100A90004608C900D824470803178D0003134808E7
:100AA00003178F008D0A03198F0A0313042D0317F0
:100AB000031308000B08C6008B13831603178C174B
:100AC0000C140000000083120313C61B8B170317BE
:100AD0008C080319842D0D080313C60003170F0893
:100AE0000313C70003170C080313C900D8244608D2
:100AF00003178D000313470803178F008D0A03198E
:100B00008F0A03135A2D031703138A110A12BE2EDC
:100B100003081F398300813083169900A63098009E
:100B2000903083129800FF30AB00AB152B08831672
:100B3000870083122B162B08831687000C30930036
:100B40002830831294008316941314138312B20175
:100B5000B401B30183161F149F141F159F11073092
:100B60009C0083138312AC01AD01D8293530C0003D
:100B70003030C100C201C3010B1683160117C0300B
:100B800083128B0483161F109F141F159F151F13AC
:100B900083121F179F1783169F1383121F14003091
:100BA000F8001F08C73978049F005330F700F70B8F
:100BB000D72D2B112B0883168700831207110C30B9
:100BC00097003A30831688000030F8000638831208
:100BD00092009B308316920083129501C401A730C6
:100BE00003178D0000308F0003131622BE30031749
:100BF0008D0000308F0003131622C7013630C60067
:100C00006E2A7808C300C3080319BE2EC701363008
:100C1000C600C9014030C800CE2B7808C500450881
:100C2000013A0319232E033A03193B2E013A031903
:100C3000532E073A03196B2E013A0319832E033AF8
:100C400003199B2EB32E0130CA00CB00C624DC3022
:100C500003178D0000308F00031304250130CA00F4
:100C60000230CB00C624E83003178D0000308F001F
:100C700003130425BE2E0130CA00CB00C624F13078
:100C800003178D0000308F00031304250130CA00C4
:100C90000230CB00C624F93003178D0000308F00DE
:100CA00003135A2DBE2E0130CA00CB00C6240830D3
:100CB00003178D0001308F00031304250130CA0093
:100CC0000230CB00C624133003178D0001308F0093
:100CD00003130425BE2E0130CA00CB00C6241F30EA
:100CE00003178D0001308F00031304250130CA0063
:100CF0000230CB00C6242B3003178D0001308F004B
:100D000003130425BE2E0130CA00CB00C6243630A2
:100D100003178D0001308F00031304250130CA0032
:100D20000230CB00C624413003178D0001308F0004
:100D300003130425BE2E0130CA00CB00C6244B305D
:100D400003178D0001308F00031304250130CA0002
:100D50000230CB00C624563003178D0001308F00BF
:100D600003130425BE2E0130CA00CB00C6245F3019
:100D700003178D0001308F00031304251030F70096
:0E0D8000F70BC02E0000FD2D0030F8006300C0
:02400E00723FFF
:00000001FF
;PIC16F877A
;CRC=CD30  CREATED="29-nov.-23 22:47"
